{
  "transactions": [
    {
      "hash": "0x1850d100e6531c7175087ddbc857be01cf60e557df19702f8aa2a2ecc9dcb5c1",
      "transactionType": "CREATE",
      "contractName": "DevOpsTools",
      "contractAddress": "0x8f2D0Dc65E95F0eB9a1C022ad0322Fd06f1123Ae",
      "function": null,
      "arguments": null,
      "transaction": {
        "type": "0x02",
        "from": "0xbb19ffac3d0440020acf388557eaec540da4ed0b",
        "gas": "0xebb6e",
        "data": "0x610c7861003a600b82828239805160001a60731461002d57634e487b7160e01b600052600060045260246000fd5b30600052607381538281f3fe730000000000000000000000000000000000000000301460806040526004361061006c5760003560e01c806326dceeb7146100715780632aa1c696146100ae5780633a768463146100e5578063a6066fa514610100578063d76ca83d14610108578063e374cdf11461011b575b600080fd5b81801561007d57600080fd5b5061009161008c366004610897565b61013b565b6040516001600160a01b0390911681526020015b60405180910390f35b6100d86040518060400160405280600b81526020016a0b8bd89c9bd85918d85cdd60aa1b81525081565b6040516100a59190610979565b610091737109709ecfa91a80626ff3989d68f67f5b1dd12d81565b6100d8610507565b6100d861011636600461098c565b610523565b81801561012757600080fd5b506100916101363660046109c1565b6106da565b600061014683610523565b925061015182610523565b60408051600180825281830190925291935060009190816020015b606081526020019060019003908161016c579050509050604051806040016040528060038152602001621c1dd960ea1b815250816000815181106101b2576101b2610a06565b6020908102919091010152604051638916046760e01b8152600090737109709ecfa91a80626ff3989d68f67f5b1dd12d906389160467906101f7908590600401610a1c565b6000604051808303816000875af1158015610216573d6000803e3d6000fd5b505050506040513d6000823e601f3d908101601f1916820160405261023e9190810190610ab5565b60408051600580825260c0820190925291925060009190816020015b606081526020019060019003908161025a579050509050604051806040016040528060048152602001630c4c2e6d60e31b815250816000815181106102a1576102a1610a06565b602002602001018190525081856040516020016102bf929190610afe565b604051602081830303815290604052816001815181106102e1576102e1610a06565b6020026020010181905250878160028151811061030057610300610a06565b602090810291909101015260405163348051d760e11b815260048101889052737109709ecfa91a80626ff3989d68f67f5b1dd12d90636900a3ae90602401600060405180830381865afa15801561035b573d6000803e3d6000fd5b505050506040513d6000823e601f3d908101601f191682016040526103839190810190610ab5565b8160038151811061039657610396610a06565b602002602001018190525081866040516020016103b4929190610b2d565b604051602081830303815290604052816004815181106103d6576103d6610a06565b6020908102919091010152604051638916046760e01b8152600090737109709ecfa91a80626ff3989d68f67f5b1dd12d9063891604679061041b908590600401610a1c565b6000604051808303816000875af115801561043a573d6000803e3d6000fd5b505050506040513d6000823e601f3d908101601f191682016040526104629190810190610ab5565b90506104916040518060400160405280600c81526020016b2932ba3ab937102230ba309d60a11b81525061072c565b61049a81610772565b60006104a582610b69565b60601c905080156104bc5794506104ff9350505050565b60405162461bcd60e51b8152602060048201526014602482015273139bc818dbdb9d1c9858dd0819195c1b1bde595960621b604482015260640160405180910390fd5b949350505050565b604051806060016040528060318152602001610c126031913981565b80516060908290600090815b835181101561057e5783818151811061054a5761054a610a06565b6020910101516001600160f81b031916600160fd1b1461056c5780925061057e565b8061057681610bbb565b91505061052f565b5082515b80156105d85783610594600183610bd4565b815181106105a4576105a4610a06565b6020910101516001600160f81b031916600160fd1b146105c6578091506105d8565b806105d081610be7565b915050610582565b508282815181106105eb576105eb610a06565b01602001516001600160f81b031916601760f91b036106125761060f600183610bfe565b91505b600061061e8383610bd4565b67ffffffffffffffff811115610636576106366107d2565b6040519080825280601f01601f191660200182016040528015610660576020820181803683370190505b50905060005b81518110156106d0578461067a8286610bfe565b8151811061068a5761068a610a06565b602001015160f81c60f81b8282815181106106a7576106a7610a06565b60200101906001600160f81b031916908160001a905350806106c881610bbb565b915050610666565b5095945050505050565b600061072383836040518060400160405280600b81526020016a0b8bd89c9bd85918d85cdd60aa1b815250604051806060016040528060318152602001610c126031913961013b565b90505b92915050565b61076f816040516024016107409190610979565b60408051601f198184030181529190526020810180516001600160e01b031663104c13eb60e21b1790526107b1565b50565b61076f816040516024016107869190610979565b60408051601f198184030181529190526020810180516001600160e01b03166305f3bfab60e11b1790525b80516a636f6e736f6c652e6c6f67602083016000808483855afa5050505050565b634e487b7160e01b600052604160045260246000fd5b604051601f8201601f1916810167ffffffffffffffff81118282101715610811576108116107d2565b604052919050565b600067ffffffffffffffff821115610833576108336107d2565b50601f01601f191660200190565b600082601f83011261085257600080fd5b813561086561086082610819565b6107e8565b81815284602083860101111561087a57600080fd5b816020850160208301376000918101602001919091529392505050565b600080600080608085870312156108ad57600080fd5b843567ffffffffffffffff808211156108c557600080fd5b6108d188838901610841565b95506020870135945060408701359150808211156108ee57600080fd5b6108fa88838901610841565b9350606087013591508082111561091057600080fd5b5061091d87828801610841565b91505092959194509250565b60005b8381101561094457818101518382015260200161092c565b50506000910152565b60008151808452610965816020860160208601610929565b601f01601f19169290920160200192915050565b602081526000610723602083018461094d565b60006020828403121561099e57600080fd5b813567ffffffffffffffff8111156109b557600080fd5b6104ff84828501610841565b600080604083850312156109d457600080fd5b823567ffffffffffffffff8111156109eb57600080fd5b6109f785828601610841565b95602094909401359450505050565b634e487b7160e01b600052603260045260246000fd5b6000602080830181845280855180835260408601915060408160051b870101925083870160005b82811015610a7157603f19888603018452610a5f85835161094d565b94509285019290850190600101610a43565b5092979650505050505050565b6000610a8c61086084610819565b9050828152838383011115610aa057600080fd5b610aae836020830184610929565b9392505050565b600060208284031215610ac757600080fd5b815167ffffffffffffffff811115610ade57600080fd5b8201601f81018413610aef57600080fd5b6104ff84825160208401610a7e565b60008351610b10818460208801610929565b835190830190610b24818360208801610929565b01949350505050565b60008351610b3f818460208801610929565b602f60f81b9083019081528351610b5d816001840160208801610929565b01600101949350505050565b805160208201516bffffffffffffffffffffffff198082169291906014831015610b9d5780818460140360031b1b83161693505b505050919050565b634e487b7160e01b600052601160045260246000fd5b600060018201610bcd57610bcd610ba5565b5060010190565b8181038181111561072657610726610ba5565b600081610bf657610bf6610ba5565b506000190190565b8082018082111561072657610726610ba556fe2e2f6c69622f666f756e6472792d6465766f70732f7372632f6765745f726563656e745f6465706c6f796d656e742e7368a26469706673582212207f5b7ed6abd89cd7794e8139c771f992754f761e2798709929d8f134cdd7ade064736f6c63430008120033",
        "nonce": "0x0",
        "accessList": []
      },
      "additionalContracts": [],
      "isFixedGasLimit": false
    },
    {
      "hash": "0x3613a8f776fd561358d94a8470449e90214f63eb34a4363e038058940c29d021",
      "transactionType": "CALL",
      "contractName": "VRFCoordinatorV2",
      "contractAddress": "0x8103B0A8A00be2DDC778e6e7eaa21791Cd364625",
      "function": "createSubscription():(uint64)",
      "arguments": [],
      "transaction": {
        "type": "0x02",
        "from": "0xbb19ffac3d0440020acf388557eaec540da4ed0b",
        "to": "0x8103b0a8a00be2ddc778e6e7eaa21791cd364625",
        "gas": "0x1558c",
        "value": "0x0",
        "data": "0xa21a23e4",
        "nonce": "0x1",
        "accessList": []
      },
      "additionalContracts": [],
      "isFixedGasLimit": false
    },
    {
      "hash": "0xb1c069bf105d72d9b067659d757d3cc196135257f30220099aa8cd1302663492",
      "transactionType": "CALL",
      "contractName": "LinkToken",
      "contractAddress": "0x779877A7B0D9E8603169DdbD7836e478b4624789",
      "function": "transferAndCall(address,uint256,bytes):(bool)",
      "arguments": [
        "0x8103B0A8A00be2DDC778e6e7eaa21791Cd364625",
        "3000000000000000000",
        "0x0000000000000000000000000000000000000000000000000000000000001101"
      ],
      "transaction": {
        "type": "0x02",
        "from": "0xbb19ffac3d0440020acf388557eaec540da4ed0b",
        "to": "0x779877a7b0d9e8603169ddbd7836e478b4624789",
        "gas": "0x1b43f",
        "value": "0x0",
        "data": "0x4000aea00000000000000000000000008103b0a8a00be2ddc778e6e7eaa21791cd36462500000000000000000000000000000000000000000000000029a2241af62c0000000000000000000000000000000000000000000000000000000000000000006000000000000000000000000000000000000000000000000000000000000000200000000000000000000000000000000000000000000000000000000000001101",
        "nonce": "0x2",
        "accessList": []
      },
      "additionalContracts": [],
      "isFixedGasLimit": false
    },
    {
      "hash": "0x81e74e9122d4a01a06577816d4c5ff2ef9281be27bafba2cad180090433e0a1b",
      "transactionType": "CREATE",
      "contractName": "Raffle",
      "contractAddress": "0xBe87525768f8e581fB71ddFFB5564ba9DE1893b5",
      "function": null,
      "arguments": [
        "10000000000000000",
        "30",
        "0x8103B0A8A00be2DDC778e6e7eaa21791Cd364625",
        "0x474e34a077df58807dbe9c96d3c009b23b3c6d0cce433e59bbf5b34f823bc56c",
        "4353",
        "500000"
      ],
      "transaction": {
        "type": "0x02",
        "from": "0xbb19ffac3d0440020acf388557eaec540da4ed0b",
        "gas": "0xddc94",
        "value": "0x0",
        "data": "0x61016060405234801561001157600080fd5b50604051610ca4380380610ca483398101604081905261003091610086565b6001600160a01b0393909316608081905260e05260a09490945260c092909252610100919091526001600160401b03909116610140524260015563ffffffff16610120526002805460ff60a01b19169055610111565b60008060008060008060c0878903121561009f57600080fd5b86516020880151604089015191975095506001600160a01b03811681146100c557600080fd5b6060880151608089015191955093506001600160401b03811681146100e957600080fd5b60a088015190925063ffffffff8116811461010357600080fd5b809150509295509295509295565b60805160a05160c05160e051610100516101205161014051610b2b61017960003960006104250152600061045c015260006103ff0152600061049a0152600061056b0152600081816101af01526102820152600081816101fe01526102400152610b2b6000f3fe6080604052600436106100915760003560e01c8063473f1ddc11610059578063473f1ddc1461012b5780636e04ff0d1461015d578063c1c244e81461018b578063ce147cf3146101a0578063e55ae4e8146101d357600080fd5b80630ea3df3814610096578063115cbaf5146100ba5780631fe543e3146100e15780632cfcc539146101035780634585e33b1461010b575b600080fd5b3480156100a257600080fd5b506000545b6040519081526020015b60405180910390f35b3480156100c657600080fd5b50600254600160a01b900460ff166040516100b191906107e4565b3480156100ed57600080fd5b506101016100fc366004610853565b6101f3565b005b610101610280565b34801561011757600080fd5b50610101610126366004610905565b61036b565b34801561013757600080fd5b506002546001600160a01b03165b6040516001600160a01b0390911681526020016100b1565b34801561016957600080fd5b5061017d610178366004610977565b61053b565b6040516100b1929190610a0c565b34801561019757600080fd5b506001546100a7565b3480156101ac57600080fd5b507f00000000000000000000000000000000000000000000000000000000000000006100a7565b3480156101df57600080fd5b506101456101ee366004610a64565b6105e8565b336001600160a01b037f000000000000000000000000000000000000000000000000000000000000000016146102725760405163073e64fd60e21b81523360048201526001600160a01b037f00000000000000000000000000000000000000000000000000000000000000001660248201526044015b60405180910390fd5b61027c8282610617565b5050565b7f00000000000000000000000000000000000000000000000000000000000000003410156102c157604051630994ba8960e11b815260040160405180910390fd5b6000600254600160a01b900460ff1660018111156102e1576102e16107ce565b146102ff57604051636eac21ed60e01b815260040160405180910390fd5b600080546001810182558180527f290decd9548b62a8d60345a988386fc84ba6bc95484008f6362f93160ef3e5630180546001600160a01b0319163390811790915560405190917f819fbd717c9d0b421352c5116a644ca68ba176960c33f406f08d98a27370ca2791a2565b60006103856040518060200160405280600081525061053b565b509050806103db57600054600254479190600160a01b900460ff1660018111156103b1576103b16107ce565b604051632c2193d560e11b8152600481019390935260248301919091526044820152606401610269565b60028054600160a01b60ff60a01b199091161790556040516305d3b1d360e41b81527f000000000000000000000000000000000000000000000000000000000000000060048201527f000000000000000000000000000000000000000000000000000000000000000067ffffffffffffffff166024820152600360448201527f000000000000000000000000000000000000000000000000000000000000000063ffffffff166064820152600160848201526000906001600160a01b037f00000000000000000000000000000000000000000000000000000000000000001690635d3b1d309060a4016020604051808303816000875af11580156104e3573d6000803e3d6000fd5b505050506040513d601f19601f820116820180604052508101906105079190610a7d565b60405190915081907fcd6e45c8998311cab7e9d4385596cac867e20a0587194b954fa3a731c93ce78b90600090a250505050565b600060606000600260149054906101000a900460ff166001811115610562576105626107ce565b600014905060007f0000000000000000000000000000000000000000000000000000000000000000600154426105989190610a96565b6000549110915015154715158280156105ae5750835b80156105b75750805b80156105c05750815b60408051808201909152600381526203078360ec1b6020820152909890975095505050505050565b60008082815481106105fc576105fc610abd565b6000918252602090912001546001600160a01b031692915050565b6000805482518390839061062d5761062d610abd565b602002602001015161063f9190610ad3565b9050600080828154811061065557610655610abd565b600091825260208083209190910154600280546001600160a81b0319166001600160a01b03909216918217905542600155604080518481529283019081905291519093506106a4929190610754565b506040516001600160a01b038216907fb112587e57bfa970257f3d54fc52859c6300f6bd7a982462c320fed45c2530ed90600090a26000816001600160a01b03164760405160006040518083038185875af1925050503d8060008114610726576040519150601f19603f3d011682016040523d82523d6000602084013e61072b565b606091505b505090508061074d576040516395e49eb360e01b815260040160405180910390fd5b5050505050565b8280548282559060005260206000209081019282156107a9579160200282015b828111156107a957825182546001600160a01b0319166001600160a01b03909116178255602090920191600190910190610774565b506107b59291506107b9565b5090565b5b808211156107b557600081556001016107ba565b634e487b7160e01b600052602160045260246000fd5b602081016002831061080657634e487b7160e01b600052602160045260246000fd5b91905290565b634e487b7160e01b600052604160045260246000fd5b604051601f8201601f1916810167ffffffffffffffff8111828210171561084b5761084b61080c565b604052919050565b6000806040838503121561086657600080fd5b8235915060208084013567ffffffffffffffff8082111561088657600080fd5b818601915086601f83011261089a57600080fd5b8135818111156108ac576108ac61080c565b8060051b91506108bd848301610822565b81815291830184019184810190898411156108d757600080fd5b938501935b838510156108f5578435825293850193908501906108dc565b8096505050505050509250929050565b6000806020838503121561091857600080fd5b823567ffffffffffffffff8082111561093057600080fd5b818501915085601f83011261094457600080fd5b81358181111561095357600080fd5b86602082850101111561096557600080fd5b60209290920196919550909350505050565b6000602080838503121561098a57600080fd5b823567ffffffffffffffff808211156109a257600080fd5b818501915085601f8301126109b657600080fd5b8135818111156109c8576109c861080c565b6109da601f8201601f19168501610822565b915080825286848285010111156109f057600080fd5b8084840185840137600090820190930192909252509392505050565b821515815260006020604081840152835180604085015260005b81811015610a4257858101830151858201606001528201610a26565b506000606082860101526060601f19601f830116850101925050509392505050565b600060208284031215610a7657600080fd5b5035919050565b600060208284031215610a8f57600080fd5b5051919050565b81810381811115610ab757634e487b7160e01b600052601160045260246000fd5b92915050565b634e487b7160e01b600052603260045260246000fd5b600082610af057634e487b7160e01b600052601260045260246000fd5b50069056fea26469706673582212200a99b0fe2b8e8a2de42d42a5a4e00a543d478c05e8dfcdc6e2cdc265fcc9362364736f6c63430008120033000000000000000000000000000000000000000000000000002386f26fc10000000000000000000000000000000000000000000000000000000000000000001e0000000000000000000000008103b0a8a00be2ddc778e6e7eaa21791cd364625474e34a077df58807dbe9c96d3c009b23b3c6d0cce433e59bbf5b34f823bc56c0000000000000000000000000000000000000000000000000000000000001101000000000000000000000000000000000000000000000000000000000007a120",
        "nonce": "0x3",
        "accessList": []
      },
      "additionalContracts": [],
      "isFixedGasLimit": false
    },
    {
      "hash": "0x5185421ce65c5e45666f123d8342b37eae79b63fada3d8d02d3fb9320dd0c9c4",
      "transactionType": "CALL",
      "contractName": "VRFCoordinatorV2",
      "contractAddress": "0x8103B0A8A00be2DDC778e6e7eaa21791Cd364625",
      "function": "addConsumer(uint64,address)",
      "arguments": [
        "4353",
        "0xBe87525768f8e581fB71ddFFB5564ba9DE1893b5"
      ],
      "transaction": {
        "type": "0x02",
        "from": "0xbb19ffac3d0440020acf388557eaec540da4ed0b",
        "to": "0x8103b0a8a00be2ddc778e6e7eaa21791cd364625",
        "gas": "0x21eb0",
        "value": "0x0",
        "data": "0x7341c10c0000000000000000000000000000000000000000000000000000000000001101000000000000000000000000be87525768f8e581fb71ddffb5564ba9de1893b5",
        "nonce": "0x4",
        "accessList": []
      },
      "additionalContracts": [],
      "isFixedGasLimit": false
    }
  ],
  "receipts": [
    {
      "transactionHash": "0x1850d100e6531c7175087ddbc857be01cf60e557df19702f8aa2a2ecc9dcb5c1",
      "transactionIndex": "0x2",
      "blockHash": "0xa886038a5fe5413613809075598913f177853d9d41ffaa3997bdb2b2ec3cc0aa",
      "blockNumber": "0x3de2bc",
      "from": "0xbb19FFAC3D0440020aCF388557eaEC540DA4ED0b",
      "to": null,
      "cumulativeGasUsed": "0xca59b",
      "gasUsed": "0xb55e6",
      "contractAddress": "0x8f2D0Dc65E95F0eB9a1C022ad0322Fd06f1123Ae",
      "logs": [],
      "status": "0x1",
      "logsBloom": "0x00000000000000000000000000000000000000000000000000000000000000000000000000000000000000000000000000000000000000000000000000000000000000000000000000000000000000000000000000000000000000000000000000000000000000000000000000000000000000000000000000000000000000000000000000000000000000000000000000000000000000000000000000000000000000000000000000000000000000000000000000000000000000000000000000000000000000000000000000000000000000000000000000000000000000000000000000000000000000000000000000000000000000000000000000000000",
      "type": "0x2",
      "effectiveGasPrice": "0xc0292655"
    },
    {
      "transactionHash": "0x3613a8f776fd561358d94a8470449e90214f63eb34a4363e038058940c29d021",
      "transactionIndex": "0x3",
      "blockHash": "0xa886038a5fe5413613809075598913f177853d9d41ffaa3997bdb2b2ec3cc0aa",
      "blockNumber": "0x3de2bc",
      "from": "0xbb19FFAC3D0440020aCF388557eaEC540DA4ED0b",
      "to": "0x8103B0A8A00be2DDC778e6e7eaa21791Cd364625",
      "cumulativeGasUsed": "0xd8f25",
      "gasUsed": "0xe98a",
      "contractAddress": null,
      "logs": [
        {
          "address": "0x8103B0A8A00be2DDC778e6e7eaa21791Cd364625",
          "topics": [
            "0x464722b4166576d3dcbba877b999bc35cf911f4eaf434b7eba68fa113951d0bf",
            "0x0000000000000000000000000000000000000000000000000000000000001101"
          ],
          "data": "0x000000000000000000000000bb19ffac3d0440020acf388557eaec540da4ed0b",
          "blockHash": "0xa886038a5fe5413613809075598913f177853d9d41ffaa3997bdb2b2ec3cc0aa",
          "blockNumber": "0x3de2bc",
          "transactionHash": "0x3613a8f776fd561358d94a8470449e90214f63eb34a4363e038058940c29d021",
          "transactionIndex": "0x3",
          "logIndex": "0x1",
          "removed": false
        }
      ],
      "status": "0x1",
      "logsBloom": "0x0000000000000000000001000000000000000000000000000000000000000000010000000000000000000000000000000000800000000000000002000000040000000000000000000000000000000000000000000000000000000000000000000000000000000000000000000000000000000000000000000000000000000000000000000c000020000000000000000000000000000000000000000000000000000000000000000000000000000000000000000000000000000000000000000000000000000000200000000000000000000000000000000000000000000000000000000000000000000000000000000000000000000000000000000000000000",
      "type": "0x2",
      "effectiveGasPrice": "0xc0292655"
    },
    {
      "transactionHash": "0xb1c069bf105d72d9b067659d757d3cc196135257f30220099aa8cd1302663492",
      "transactionIndex": "0x4",
      "blockHash": "0xa886038a5fe5413613809075598913f177853d9d41ffaa3997bdb2b2ec3cc0aa",
      "blockNumber": "0x3de2bc",
      "from": "0xbb19FFAC3D0440020aCF388557eaEC540DA4ED0b",
      "to": "0x779877A7B0D9E8603169DdbD7836e478b4624789",
      "cumulativeGasUsed": "0xeb96f",
      "gasUsed": "0x12a4a",
      "contractAddress": null,
      "logs": [
        {
          "address": "0x779877A7B0D9E8603169DdbD7836e478b4624789",
          "topics": [
            "0xddf252ad1be2c89b69c2b068fc378daa952ba7f163c4a11628f55a4df523b3ef",
            "0x000000000000000000000000bb19ffac3d0440020acf388557eaec540da4ed0b",
            "0x0000000000000000000000008103b0a8a00be2ddc778e6e7eaa21791cd364625"
          ],
          "data": "0x00000000000000000000000000000000000000000000000029a2241af62c0000",
          "blockHash": "0xa886038a5fe5413613809075598913f177853d9d41ffaa3997bdb2b2ec3cc0aa",
          "blockNumber": "0x3de2bc",
          "transactionHash": "0xb1c069bf105d72d9b067659d757d3cc196135257f30220099aa8cd1302663492",
          "transactionIndex": "0x4",
          "logIndex": "0x2",
          "removed": false
        },
        {
          "address": "0x779877A7B0D9E8603169DdbD7836e478b4624789",
          "topics": [
            "0xe19260aff97b920c7df27010903aeb9c8d2be5d310a2c67824cf3f15396e4c16",
            "0x000000000000000000000000bb19ffac3d0440020acf388557eaec540da4ed0b",
            "0x0000000000000000000000008103b0a8a00be2ddc778e6e7eaa21791cd364625"
          ],
          "data": "0x00000000000000000000000000000000000000000000000029a2241af62c0000000000000000000000000000000000000000000000000000000000000000004000000000000000000000000000000000000000000000000000000000000000200000000000000000000000000000000000000000000000000000000000001101",
          "blockHash": "0xa886038a5fe5413613809075598913f177853d9d41ffaa3997bdb2b2ec3cc0aa",
          "blockNumber": "0x3de2bc",
          "transactionHash": "0xb1c069bf105d72d9b067659d757d3cc196135257f30220099aa8cd1302663492",
          "transactionIndex": "0x4",
          "logIndex": "0x3",
          "removed": false
        },
        {
          "address": "0x8103B0A8A00be2DDC778e6e7eaa21791Cd364625",
          "topics": [
            "0xd39ec07f4e209f627a4c427971473820dc129761ba28de8906bd56f57101d4f8",
            "0x0000000000000000000000000000000000000000000000000000000000001101"
          ],
          "data": "0x000000000000000000000000000000000000000000000000000000000000000000000000000000000000000000000000000000000000000029a2241af62c0000",
          "blockHash": "0xa886038a5fe5413613809075598913f177853d9d41ffaa3997bdb2b2ec3cc0aa",
          "blockNumber": "0x3de2bc",
          "transactionHash": "0xb1c069bf105d72d9b067659d757d3cc196135257f30220099aa8cd1302663492",
          "transactionIndex": "0x4",
          "logIndex": "0x4",
          "removed": false
        }
      ],
      "status": "0x1",
      "logsBloom": "0x0000001400000000000000000000000000000000000000020000000002000000000000000000800000000000000000000000800000000000000002000000040000000000000000000000000800000000000000000000000000002000000000000000000000000000000000008000000000000000400000000000001000000000000000000c000020000000000000800010000020000000000000000000000000000000000001000000000000000000000000000000000000000400000002000000000002000000000000000000000000000000000000000100000000000000000000000000000000000000000000000000000000000000000000000000000000",
      "type": "0x2",
      "effectiveGasPrice": "0xc0292655"
    },
    {
      "transactionHash": "0x81e74e9122d4a01a06577816d4c5ff2ef9281be27bafba2cad180090433e0a1b",
      "transactionIndex": "0x5",
      "blockHash": "0xa886038a5fe5413613809075598913f177853d9d41ffaa3997bdb2b2ec3cc0aa",
      "blockNumber": "0x3de2bc",
      "from": "0xbb19FFAC3D0440020aCF388557eaEC540DA4ED0b",
      "to": null,
      "cumulativeGasUsed": "0x1963f4",
      "gasUsed": "0xaaa85",
      "contractAddress": "0xBe87525768f8e581fB71ddFFB5564ba9DE1893b5",
      "logs": [],
      "status": "0x1",
      "logsBloom": "0x00000000000000000000000000000000000000000000000000000000000000000000000000000000000000000000000000000000000000000000000000000000000000000000000000000000000000000000000000000000000000000000000000000000000000000000000000000000000000000000000000000000000000000000000000000000000000000000000000000000000000000000000000000000000000000000000000000000000000000000000000000000000000000000000000000000000000000000000000000000000000000000000000000000000000000000000000000000000000000000000000000000000000000000000000000000",
      "type": "0x2",
      "effectiveGasPrice": "0xc0292655"
    },
    {
      "transactionHash": "0x5185421ce65c5e45666f123d8342b37eae79b63fada3d8d02d3fb9320dd0c9c4",
      "transactionIndex": "0x6",
      "blockHash": "0xa886038a5fe5413613809075598913f177853d9d41ffaa3997bdb2b2ec3cc0aa",
      "blockNumber": "0x3de2bc",
      "from": "0xbb19FFAC3D0440020aCF388557eaEC540DA4ED0b",
      "to": "0x8103B0A8A00be2DDC778e6e7eaa21791Cd364625",
      "cumulativeGasUsed": "0x1ad706",
      "gasUsed": "0x17312",
      "contractAddress": null,
      "logs": [
        {
          "address": "0x8103B0A8A00be2DDC778e6e7eaa21791Cd364625",
          "topics": [
            "0x43dc749a04ac8fb825cbd514f7c0e13f13bc6f2ee66043b76629d51776cff8e0",
            "0x0000000000000000000000000000000000000000000000000000000000001101"
          ],
          "data": "0x000000000000000000000000be87525768f8e581fb71ddffb5564ba9de1893b5",
          "blockHash": "0xa886038a5fe5413613809075598913f177853d9d41ffaa3997bdb2b2ec3cc0aa",
          "blockNumber": "0x3de2bc",
          "transactionHash": "0x5185421ce65c5e45666f123d8342b37eae79b63fada3d8d02d3fb9320dd0c9c4",
          "transactionIndex": "0x6",
          "logIndex": "0x5",
          "removed": false
        }
      ],
      "status": "0x1",
      "logsBloom": "0x0000000000000000000000000000000000000000000000000000000000000000000000000000000000000000000000000000800000000000000002000000040000000000000000000000000000000000000000000000000000000000000000000000000000008000000000000000000000000000000000000000000000000000000000000c000020000000000000000000000000000000000000000000000000000000000000000000000080000000000000000000000000000000000000000000000000000000000000000000000000000000000000000000020000000000000000000000000000000000000000000000000000000000000000000000000000",
      "type": "0x2",
      "effectiveGasPrice": "0xc0292655"
    }
  ],
  "libraries": [
    "lib/foundry-devops/src/DevOpsTools.sol:DevOpsTools:0x8f2d0dc65e95f0eb9a1c022ad0322fd06f1123ae"
  ],
  "pending": [],
  "returns": {
    "0": {
      "internal_type": "contract Raffle",
      "value": "0xBe87525768f8e581fB71ddFFB5564ba9DE1893b5"
    },
    "1": {
      "internal_type": "contract HelperConfig",
      "value": "0xC7f2Cf4845C6db0e1a1e91ED41Bcd0FcC1b0E141"
    }
  },
  "timestamp": 1691591940,
  "chain": 11155111,
  "multi": false,
  "commit": "e2173f6"
}